:020000040800F2
:100000000000022049320008A5020008A9020008E9
:10001000AD020008B1020008B502000800000000AF
:10002000000000000000000000000000B90200080D
:10003000BD02000800000000C1020008C50200085F
:100040009932000899320008993200089932000864
:100050009932000899320008993200089932000854
:100060009932000899320008993200089932000844
:100070009932000899320008993200089932000834
:100080009932000899320008993200089932000824
:100090009932000899320008993200089932000814
:1000A0009932000899320008993200089932000804
:1000B00099320008993200089932000899320008F4
:1000C00099320008993200089932000899320008E4
:1000D00099320008993200089932000899320008D4
:1000E00099320008993200089932000899320008C4
:1000F00099320008993200089932000899320008B4
:1001000099320008993200089932000899320008A3
:100110009932000899320008993200089932000893
:100120009932000899320008993200089932000883
:100130009932000899320008993200089932000873
:10014000993200089932000899320008C902000863
:100150009932000899320008993200089932000853
:100160009932000899320008993200089932000843
:100170009932000899320008993200080000000006
:080180009932000899320008D1
:1001880053B94AB9002908BF00281CBF4FF0FF31F6
:100198004FF0FF3000F00CB8ADF1080C6DE904CE5B
:1001A80003F0CCF9DDF804E0DDE9022304B0704780
:1001B800704700BF10B5054C237833B9044B13B111
:1001C8000448AFF300800123237010BDBC09002050
:1001D80000000000B441000808B5034B1BB10349F7
:1001E8000348AFF3008008BD00000000C0090020EC
:1001F800B441000882B00D4B002100915A6C42F4C2
:1002080080425A645A6C02F480420092009A01912A
:100218001A6C42F080521A641B6C03F080530193ED
:10022800019B072002B001F061BC00BF003802400A
:1002380030B5184A016889B000239142CDE90333EB
:10024800CDE90533079301D009B030BD02F500327E
:100258000193116C41F480411164106C00F48040EA
:10026800019001980293136B0B48022423431363F4
:10027800136B049423400293032205234FF4704523
:1002880003A90395CDE90623029D01F049F809B0B9
:1002980030BD00BF0038004000040240704700BF76
:1002A800FEE700BFFEE700BFFEE700BFFEE700BFB6
:1002B800704700BF704700BF704700BF00F09CBA8E
:1002C800014800F0ABBB00BFD8190020024B4FF02B
:1002D80000629A60704700BF00ED00E000207047A0
:1002E800002070470020704710B5054C0146204695
:1002F80002F086FF204602F089FF002010BD00BFF3
:10030800E01F002010B5064C06490022204602F0E6
:100318006FFF0549204602F073FF002010BD00BFA3
:10032800E01F0020D8110020D809002030B503684C
:1003380089B00024B3F1A04FCDE90344CDE90544C9
:10034800079401D009B030BD1B4D01942B6B1B489D
:1003580043F001032B632B6B03F00103019303A903
:100368004FF40073019A039300F0DAFF4FF4E05260
:100378000223CDE9032303A90A2310480793CDE9F3
:10038800054400F0CDFF6B6B43F080036B63029470
:100398006B6C43F480436B646B6C03F480432246BC
:1003A800214602934320029B01F0B2FB432001F057
:1003B800EBFB09B030BD00BF00380240000002402E
:1003C80000F57171D0F8040402F08CB9C1EBC103D7
:1003D80000EB8303D0F80404D3F8082202F0B2B982
:1003E800C1EBC10300EB8303D0F804049A6C02F05C
:1003F800DFB900BFD0F8040402F072BAC16810B5C2
:10040800044611B102290AD10121D4F8040402F0EA
:100418004FFAD4F80404BDE8104002F021BA03F002
:100428008BF80121F1E700BF10B50446D0F80404A9
:1004380002F042FA2268D2F8003E43F00103C2F803
:10044800003E236A23B1034A136943F0060313618C
:1004580010BD00BF00ED00E0D0F8040402F036BA89
:10046800D0F8040402F04CBAD0F8040402F046BAFA
:10047800D0F8040402F046BAD0F8040402F044BAF2
:1004880002780AB100207047154B10B5C3F8040470
:100498004FF0A044C0F8C4320420C3E90040022150
:1004A80001241846C3E90312C3E90612C3E9082266
:1004B800C3E90B4200F004FA78B98021084800F03B
:1004C80029FF40220021064800F0FEFE802201217B
:1004D800034800F0F9FE002010BD03F02DF8ECE70A
:1004E800D819002008B5D0F8C40200F077FA03281C
:1004F80096BF024B0320185C08BD00BFDC41000812
:10050800944608B51A46D0F8C402634600F094FD34
:10051800032896BF014B0320185C08BDDC41000886
:1005280008B5D0F8C40200F0C5FD032896BF024BF9
:100538000320185C08BD00BFDC41000808B5D0F8EE
:10054800C40200F045FE032896BF024B0320185C46
:1005580008BD00BFDC41000808B5D0F8C40200F0AF
:100568007BFE032896BF024B0320185C08BD00BF22
:10057800DC4100080A06D0F8C43206D4C1EBC10138
:1005880003EB810191F8FE01704701F07F01C1EB97
:10059800C10103EB810191F83E00704708B5D0F81E
:1005A800C40200F035FD032896BF024B0320185CF7
:1005B80008BD00BFDC41000808B5D0F8C40200F04F
:1005C800DFFD032896BF024B0320185C08BD00BF5F
:1005D800DC41000808B5D0F8C40200F09FFD0328EC
:1005E80096BF024B0320185C08BD00BFDC41000821
:1005F800D0F8C40200F0BABD122301480B8070473E
:1006080034000020042301480B8070474800002074
:1006180010B5044C04480A46214602F007FC20465F
:1006280010BD00BFE01D0020E041000810B5044CDB
:1006380004480A46214602F0F9FB204610BD00BFD7
:10064800E01D0020F441000810B5044C04480A4697
:10065800214602F0EBFB204610BD00BFE01D002044
:100668000C42000810B5044C04480A46214602F022
:10067800DDFB204610BD00BFE01D00201842000829
:100688001E48D0F8103AD0F8182A30B59B184FF009
:100698001A040C8001D11A4830BD194AD0F8140A3E
:1006A80002F1100511460024B3F1204F4FEA137CE4
:1006B8000CF1300E2ABF0CF1370C81F802E081F8FA
:1006C80002C0CC7002318D424FEA0313ECD10D4CBD
:1006D8004FF0000CB0F1204F4FEA107303F13001D6
:1006E8002ABF37339174937482F813C0023294424C
:1006F8004FEA0010EED1024830BD00BF0070FF1F66
:100708004C0000205400002008B518491848002261
:1007180001F0A8FF70B91749154801F0BBFF88B967
:100728001549134802F05CFDA0B9114801F0C8FF53
:10073800B8B908BD02F000FF0E490D4801F0AAFF44
:100748000028EDD002F0F8FE0B49094802F048FDF8
:100758000028EAD002F0F0FE054801F0B1FF0028B9
:10076800E7D0BDE8084002F0E7BE00BF180000204F
:10077800E01F00206C0000200400002038B50E4A5D
:100788000E4B12781B6805464FF47A70B0FBF2F0F6
:10079800B3FBF0F001F006FA08B90F2D01D90120DA
:1007A80038BD0446024629464FF0FF3001F0B0F943
:1007B800034B20461D6038BD660000200000002065
:1007C8006800002008B50B4B1A6842F400721A60E2
:1007D8001A6842F480621A601A6842F480721A60D9
:1007E800032001F083F90020FFF7C8FFFFF702FD9F
:1007F800002008BD003C0240034A044B11681B78E6
:100808000B441360704700BFB02200206600002030
:10081800014B1868704700BFB022002038B5044665
:10082800FFF7F6FF631C054602D0044B1B781C44F7
:10083800FFF7EEFF401BA042FAD338BD6600002048
:1008480000283BD038B590F8512000230446836235
:1008580002F0FF0162B31846D4E90131E268256865
:100868000B431343D4E904120B431343E2690221F7
:1008780084F851101343226A29681343A26921F0AE
:100888004001296002F4007C616A120C43EA0C03FF
:1008980002F0040203430A432B606A60EB690020FC
:1008A80023F400630122EB61606584F8512038BDB0
:1008B80080F85010FFF7BCFCA06ACDE70120704714
:1008C800F0B58BB0002800F0858090F8BD3304683F
:1008D800054603F0FF02002B76D02046032385F857
:1008E800BD33E36B2E4613F4807308BF2B6101F010
:1008F8005DFA56F810EBB446BCE80F006C460FC41E
:10090800BCE80F000FC49CE8030084E803002F1D17
:1009180097E80E00704601F05DF9044630B10124F5
:100928000223204685F8BD330BB0F0BD0146286888
:1009380001F044FA686858B322464FF0010E214688
:10094800C2EBC20305EB830302F1010C83F83C20E0
:10095800A3F842205FFA8CF28242C3E9111183F8AE
:100968003DE083F83F101965EAD30022C4EBC403C5
:1009780005EB8303611C83F8FC41CCB28442C3E9D4
:10098800812283F8FD2183F8FF21C3F81022EDD3DB
:100998000FCE6C460FC40FCE0FC496E8030084E850
:1009A800030097E80E00286801F020FA04460028A2
:1009B800B5D1012385F83800286885F8BD3301F0E2
:1009C800D5FD20460BB0F0BD80F8BC23FFF7AEFC88
:1009D800286883E7012420460BB0F0BD10B590F8D5
:1009E800BC33012B0446006816D0A36A0122934247
:1009F80084F8BC2308D001F0D1F9206801F0A6FDE5
:100A0800002084F8BC0310BDA3699342F3D0836B24
:100A180043F480338363EEE7022010BD2DE9F04FE5
:100A2800076887B00446384601F0DEFD10B107B00C
:100A3800BDE8F08F8346206801F0A8FD0028F6D0B5
:100A4800206801F0A3FD10F0020F20681EBF436963
:100A580003F00203436101F099FD10F0100F2068C4
:100A680012D0836923F0100383613D6AC5F34343C1
:100A7800022B05F00F0600F03782062B00F0E68106
:100A8800836943F01003836101F080FD10F4002FA7
:100A9800206840F0028101F079FD10F4802F206871
:100AA8005AD101F073FD002842DB206801F06EFD89
:100AB800010532D4206801F069FDC30400F16381A7
:100AC800206801F063FD10F4005F206840F0448165
:100AD80001F05CFD070700F13681206801F056FD42
:100AE800C60200F12681206801F050FD850200F160
:100AF8001681206801F04AFD400000F10781206856
:100B080001F044FD410792D523685D686A0700F14A
:100B18000C825A682A435A6089E7D7F80838DA07F6
:100B280000F1FF812068436903F400634361C2E771
:100B3800D7F8042822F00102C7F8042894F8F433FF
:100B4800012B00F07C812046FFF786FC2068436972
:100B580003F000434361A9E701F024FD81462068C2
:100B6800B9F1000F9DD0CDE9027B264607F5106844
:100B78004FF0000A09E05FEA59090AF1010A06F193
:100B88001C0608F1200800F0768119F0010FF2D058
:100B98005FFA8AFB594601F017FD0546E80715D5A7
:100BA80002990120D1F834380AF00F0200FA02F253
:100BB80023EA0203C1F834382169C8F808008142E1
:100BC80000F0B88159462046FFF70AFC290744BFC0
:100BD8000823C8F80830EA0644BF1023C8F80830CC
:100BE8006B0644BF4023C8F80830AF0748BF02234C
:100BF800276848BFC8F808302D063846BBD5D6E95F
:100C08001453AB42B7D807F5106202EB4A121146EB
:100C18009646726C89690597A5EB030C624528BF57
:100C2800624689B20332B1EB920FC0F0AC81CDF8C5
:100C38001080D846BB46774619E0736CB16C9D426C
:100C480028BF1D46237C00934246ABB2584601F0AC
:100C5800EFFBB36CB9692B44B364736D89B22B4451
:100C68000335B1EB950F7365C0F08881356DAB42E4
:100C7800A5EB0305E1D3DDF810802768059B0AF092
:100C88000F0203F500610125D3F8343805FA02F2A2
:100C980023EA020338464B636DE701F07BFC054607
:100CA8002068002D3FF4F7AE07F53066A2464FF0F6
:100CB8000008029708E06D0808F1010806F120060F
:100CC8000AF11C0A00F0D580EF07F4D55FFA88F71F
:100CD800394601F06FFC814619F0010F206840F099
:100CE800E68019F0080F40F0C98019F0100F1CBFFA
:100CF8001023B36019F0200F1CBF2023B36019F430
:100D0800005F1CBF4FF40053B360D4E72046FFF7E1
:100D1800AFFB2068436903F080434361F0E6204657
:100D28000021FFF79DFB2068436903F4001343612A
:100D3800E0E620460021FFF797FB2068436903F4AB
:100D480080134361D0E62046FFF754FB20684369CF
:100D580003F008034361C1E601F04AFC206801F092
:100D680031F9E060256800F0BBFE227B0146284689
:100D780000F09AFF2046FFF741FB2068436903F41F
:100D880000534361A4E6D7F80438206823F0010330
:100D98001021C7F8043801F003F9606807F5006509
:100DA80000B307F510634FF67F3199601A6822F493
:100DB80000121A601A6842F000621A60C3F808123A
:100DC800D3F8002222F40012C3F80022D3F800223C
:100DD8000BF1010B42F000628345C3F8002203F1D6
:100DE8002003E2D1EB69226B43F00113EB61DAB91E
:100DF8006B6943F4005343F02B036B612B6943F099
:100E08000B032B61D7F80038217C206823F4FE639C
:100E1800C7F8003804F5717201F0FCFB20684369DB
:100E280003F4805343614CE6D5F8843043F00B0358
:100E3800C5F884306B6C43F00B036B64E2E7002168
:100E480084F8F413204600F069FA7FE6082204F5D6
:100E580071713846C6EBC60601F0FEFA04EB86024D
:100E6800C5F30A13D2F8141220680B44C2F81432DE
:100E780006E6029F0FE6DDE9027B12E60823B3606F
:100E8800026C00EB48136048D3F8081B824203F554
:100E9800306361D90F0402D54FF400429A602046AE
:100EA800FFF78EFA216901297DD020681DE701220C
:100EB800B2602169D0F840C000F5306202EB4812F8
:100EC800012993684DD051498C4560D0B8F1000F85
:100ED80004D1D4F81022002A00F090802046394628
:100EE800FFF774FA2068FCE647F6F0731D423FF4FA
:100EF800C7ADC6EBC60604EB8606C5F30A12D6F8DC
:100F080008123846154601F0A7FAD6F808322068C4
:100F18002B44C6F80832D6F814322B44C6F81432DB
:100F2800AEE52046FFF780FAFCE52046FFF7A4FA75
:100F38002368EEE5D6E911231344B364BAF1000F30
:100F48007FF440AE236D002B7FF43CAE206804F59F
:100F5800717201F05FFB35E62046FFF731FA206831
:100F6800C3E619071AD528498C457FF6BAAE1F047F
:100F78007FF5B7AE4FF400439360B2E62768DDF81B
:100F88001080356D3846AB42FFF4F5AD76E61904AE
:100F9800F0D49B06A2D5202191609FE7990608D539
:100FA800202393609DE6206804F5717201F032FBFE
:100FB8007BE713F0280F7FF494AE13498C4501D9D1
:100FC8001B04D7D41269DAF80412C2F312028A1A7F
:100FD800CAF81422DAF808220A44CAF80822B8F132
:100FE800000F7FF47BAFD4F81022002A7FF476AF8D
:100FF80004F57172012101F00DFB6FE704F57172C0
:10100800414601F007FB69E70A30544F0A31544F53
:1010180090F8BC23012A0DD010B5044601220068BF
:1010280084F8BC2384F8381001F080FA002084F892
:10103800BC0310BD0220704710B501F00F0ECEEBB7
:10104800CE0C090604464FEA8C0C24D40CF5FE712C
:101058000144CEEBCE0004EB80004FF0000C80F88A
:10106800FDC18A604A7881F800E0CB700AB1A1F826
:1010780006E0022B04BF00230B7194F8BC33012B4C
:1010880015D00123206884F8BC3300F0A7FF0020A6
:1010980084F8BC0310BD0CF13C010144CEEBCE003A
:1010A80004EB80004FF0010C80F83DC0D9E7022026
:1010B80010BD00BF01F00F0301F00F0210B5C3EB24
:1010C800C30304460906C2EBC2004FEA830304EBDC
:1010D800800015D403F5FE73E1184FF0000C80F87A
:1010E800FDC10A7094F8BC33012B14D00123206889
:1010F80084F8BC3300F0BAFF002084F8BC0310BDAC
:101108003C33E1184FF0010C80F83DC00A7094F8A8
:10111800BC33012BEAD1022010BD00BF10B501F08D
:101128000F04C4EBC40C00EB8C0C1C21CCF810325F
:101138000023CCF808228CF8FC41CCF814328CF847
:10114800FD31036901FB0401012B08BFCCF80C2217
:10115800006801F5FE71DAB21CB901F0E9F8002067
:1011680010BD00F0E3FF002010BD00BF01F00F012B
:10117800C1EBC10100EB8101D1F81402704700BF37
:1011880010B501F00F04C4EBC40C00EB8C0C1C214F
:10119800CCF850300023CCF854300123CCF8482048
:1011A8008CF83C408CF83D30036901FB0401012BAD
:1011B80008BFCCF84C2000683C31DAB21CB901F009
:1011C800B7F8002010BD00F0B1FF002010BD00BF2F
:1011D80038B5436801F00F059D4233D80B06044625
:1011E8001CD4C1EBC1031C2202FB010100EB8303E9
:1011F80001F5FE71002283F8FD2101238B700D702B
:1012080094F8BC239A421BD0206884F8BC3301F0C0
:1012180033F9CDB1002084F8BC0338BDC5EBC50354
:101228001C2101FB050100EB830301223C3183F8FB
:101238003D2001238B700D7094F8BC239A42E3D1B2
:10124800022038BD012038BD217C206804F5717268
:1012580001F0E0F9DEE700BF38B5436801F00F029E
:101268009A422FD80446C2EBC203C2EBC200090659
:101278004FEA830304EB800016D403F5FE73E118EC
:10128800002580F8FD5100258D700A7094F8BC3354
:10129800012B15D00123206884F8BC3301F01AF91A
:1012A80084F8BC53284638BD3C33E118012580F842
:1012B8003D5000258D700A7094F8BC33012BE9D19C
:1012C800022038BD012038BD10B404681204606AD9
:1012D80021B91043A062002010BC7047A36AB1F185
:1012E800010C00EB13400BD0002303F1400104EB89
:1012F800810101334968DBB2634500EB1140F4D347
:101308000CF1400C04EB8C0C1043CCF8040010BC1E
:10131800002070470368002059627047704700BF7B
:101328002DE9F04F00230D68DFF82CB28B4E85B005
:1013380003E00133102B00F0A18001229A4002EA59
:10134800050AAA43F5D14C688A685F0024F0100E9C
:1013580002FA07F80EF1FF3C0322BA40BCF1010F74
:101368006FEA020240F28D80D0F80CC002EA0C0C41
:1013780048EA0C0CC0F80CC0D0F800C00CEA020C0B
:1013880004F0030202FA07F747EA0C07E2000760D5
:10139800CFD500220392DBF8442042F48042CBF8F8
:1013A8004420DBF8442002F480420392039A23F09D
:1013B800030202F1804202F59C3203F0030ED2F8D8
:1013C80008C04FEA8E0E0F2707FA0EF72CEA070718
:1013D800DFF88CC1604529D00CF5806C604500F0C1
:1013E8009180DFF880C1604500F09380DFF878C114
:1013F800604500F09580DFF874C1604500F0978083
:10140800DFF86CC1604500F09980DFF868C160457D
:1014180000F09B80DFF860C160450CBF4FF0070CFF
:101428004FF0080C0CFA0EFE47EA0E079760326878
:10143800E7036FEA0A0C54BF0CEA02024AEA020206
:1014480032607768A20354BF0CEA07074AEA070725
:101458007760B768E20254BF0CEA07074AEA070751
:10146800B760F268A40203F1010354BF0CEA020258
:101478004AEA0202102BF2607FF45FAF05B0BDE8C4
:10148800F08FD0F808C0D1F80C900CEA020C09FAD9
:1014980007F949EA0C0CC0F808C0D0F80490C4F366
:1014A800001C29EA0A090CFA03FC4CEA090CC0F8EA
:1014B80004C0D0F80CC00CEA020C4CEA080CBEF1CF
:1014C800020FC0F80CC07FF457AF4FEAD30E00EB01
:1014D8008E0E03F00708DEF820C0CDF804C0D1F85E
:1014E80010C04FEA88084FF00F090CFA08FC09FAF7
:1014F80008F8DDF8049029EA08094CEA090CCEF846
:1015080020C039E74FF0010C0CFA0EFE47EA0E072F
:101518008CE74FF0020C0CFA0EFE47EA0E0785E73F
:101528004FF0030C0CFA0EFE47EA0E077EE74FF069
:10153800040C0CFA0EFE47EA0E0777E74FF0050C8D
:101548000CFA0EFE47EA0E0770E74FF0060C0CFA8D
:101558000EFE47EA0E0769E700380240003C0140EA
:101568000000024000080240000C02400010024047
:101578000014024000180240001C024002B909048D
:1015880081617047002800F09C812DE9F0410368D3
:10159800DD0782B004462FD59E498A6802F00C0206
:1015A800042A00F0ED808A6802F00C02082A00F094
:1015B800E3806368B3F5803F00F0EC80B3F5A02FBB
:1015C80000F06F81934D2A6822F480322A602A68DD
:1015D80022F480222A60002B40F0E180FFF718F9FE
:1015E800064605E0FFF714F9801B642800F2018124
:1015F8002B689B03F6D423689F0728D5854A9168F2
:1016080011F00C0F00F09080916801F00C0108298E
:1016180000F08680E368002B00F00E817E4B7D4E43
:1016280001221A60FFF7F4F8054605E0FFF7F0F825
:10163800401B022800F2DD8033689807F6D533682E
:10164800226923F0F80343EAC203336023681A07C8
:1016580051D458072FD56F4A136C13F080537FD09D
:1016680000256E4E3368D90540F1B380A368012B7D
:1016780000F0C380052B00F02681664E326F22F001
:1016880001023267326F22F004023267002B40F009
:10169800B980FFF7BDF841F28838074605E0FFF743
:1016A800B7F8C01B404500F2A480336F9807F6D402
:1016B800002D40F00081A069C8B1564DAB6803F019
:1016C8000C03082B00F0C980534B002202281A662D
:1016D80000F00381FFF79CF8044605E0FFF798F84F
:1016E800001B022800F285802B689B01F6D400209D
:1016F80002B0BDE8F08163690BB3474B454E012248
:10170800C3F8802EFFF784F8054604E0FFF780F859
:10171800401B02286DD8736F9B07F7D5236898E79D
:10172800526856023FF576AF3A4A1268950744D593
:10173800E268012A41D0012002B0BDE8F081364AB2
:10174800344EC2F8803EFFF763F8054604E0FFF721
:101758005FF8401B02284CD8736F9F07F7D4DDE76A
:101768000193136C43F080531364136C03F080539C
:101778000193019B012574E74A6850027FF519AF70
:10178800244A126891037FF537AF6268002A7FF414
:1017980033AFD0E71F4A136843F480331360FFF771
:1017A80037F81C4E054604E0FFF732F8401B642862
:1017B8001FD833689A03F7D51DE7164920690A68C8
:1017C80022F0F80242EAC0020A601A077FF541AF28
:1017D80091E7336843F480733360FFF719F80746DD
:1017E8003368DA053FF542AFFFF712F8C01B02284D
:1017F800F6D9032002B0BDE8F081064A136F43F022
:1018080001031367FFF704F8024F064641F28838D0
:101818000BE000BF00380240000047420070004063
:10182800FEF7F6FF801B4045E3D83B6F9B07F7D5D3
:10183800002D3FF440AF3EE03E4A3F4E1360FEF7B6
:10184800E7FF054604E0FEF7E3FF401B0228D0D877
:1018580033689907F7D42368F9E601283FF448AFBD
:101868006B68E26903F4800191427FF464AF226AF5
:1018780003F03F0191427FF45EAF616A47F6C072A0
:101888001A408A427FF457AFA26A03F4403191426A
:101898007FF451AFE06A03F07063181A18BF012093
:1018A80026E7254B1A6842F480221A601A6842F427
:1018B80080321A6073E7204A136C23F08053136454
:1018C800F9E6012070471C4B1A6F42F004021A67B0
:1018D8001A6F42F001021A6794E7FEF799FF06466D
:1018E80004E0FEF795FF801B022882D82B68990137
:1018F800F7D4D4E90731626A0B4343EA8213D4E987
:101908000A21520843EA0163013A0A4943EA0243B9
:1019180001226B600A66FEF77BFF074D044605E06F
:10192800FEF776FF001B02283FF663AF2B689A018B
:10193800F6D5DCE60000474200380240164908B5F3
:101948008B6803F00C03042B1BD0082B17D14A68B3
:101958004B68496813F4800302F03F0213D10F4823
:10196800C1F38811A1FB0001FEF70AFC0A4B5B6872
:10197800C3F3014301335B00B0FBF3F008BD074834
:1019880008BD074808BD0648C1F388110023A1FB1C
:101998000001FEF7F5FBE9E7003802400024F400F7
:1019A80000127A00002800F08780484A136803F084
:1019B8000F038B422DE9F0410D46044609D2CBB204
:1019C8001370136803F00F038B4202D00120BDE8A7
:1019D800F0812368980714D5590704D53C498A68CB
:1019E80042F4E0528A601A0704D539498A6842F4F9
:1019F80060428A603649A0688A6822F0F002024391
:101A08008A60DF0721D56268012A57D0931E012B0F
:101A18002F4B1B684DD99907D8D52D4EB36823F0A5
:101A280003031343B360FEF7F3FE41F28838074619
:101A380004E0FEF7EDFEC01B404544D8B368626879
:101A480003F00C03B3EB820FF3D1204A136803F0C1
:101A58000F03AB4206D9EBB21370136803F00F0300
:101A6800AB42B3D123685A0706D51949E0688A689A
:101A780022F4E05202438A601B0707D5144A216901
:101A8800936823F4604343EAC1039360FFF756FF6A
:101A98000F4A104C92681049C2F303120346A25C25
:101AA8000E48D34000680B60FEF768FE0020BDE8D2
:101AB800F0819801B1D489E701207047044B1B6875
:101AC8009E03AAD482E7032081E700BF003C0240BE
:101AD80000380240CC4100080000002068000020C7
:101AE800014B1868704700BF000000200749CA680A
:101AF80003024FF6FF0003F4E0630240134343F090
:101B0800BF6343F40033CB60704700BF00ED00E0D3
:101B18001B4BDB68C3F3022C00B5CCF1070EBEF1FA
:101B2800040F0CF1040328BF4FF0040E062B1CD938
:101B3800ACF103034FF0FF3C0CFA03FC22EA0C0261
:101B48004FF0FF3C0CFA0EFC21EA0C0101FA03F3FA
:101B580013431B010028DBB20ADB00F1604000F5EB
:101B6800614080F800335DF804FB00221346E7E784
:101B7800044A00F00F00024413765DF804FB00BF2E
:101B880000ED00E0FCEC00E0002808DB4109044A15
:101B980000F01F00012303FA00F042F8210070470B
:101BA80000E100E00138B0F1807F0FD210B44FF0AF
:101BB800E023074C58614FF0F00C84F823C0002252
:101BC800072110469A6110BC1961704701207047BF
:101BD80000ED00E084B00DF1040C8CE80E00069BCB
:101BE800012B024631D1836B0D9923F48033836333
:101BF800C36823F4840323F04003C360C368012946
:101C080023F44013C36044D0264B01E0013B45D088
:101C180011690029FADA1369224943F001031361B3
:101C280001E001393AD0136913F00103F9D11846DC
:101C3800049B012B07D1936843F0060393609368D4
:101C480043F02003936004B07047C168154B41F01E
:101C58004001C16001E0013B22D011690029FADA94
:101C68001369104943F00103136101E0013917D0EA
:101C7800136913F00103F9D118460A9B23B9936B32
:101C880043F480339363D3E7936B23F480339363F4
:101C9800CEE7C36843F48013C360B5E70320C7E702
:101CA8000320EAE7400D0300022A03460BD04FF455
:101CB800105CD96821F47051D960DA6842EA0C02E4
:101CC8000020DA607047264A26480A44824232D900
:101CD800254A26480A44824230D92548A1F574028B
:101CE800A2F5105282422CD92248A1F18372A2F5A2
:101CF800E742824228D3204A20480A44824226D911
:101D08001F4A20480A44824224D31F4A1F480A44D3
:101D18008242CCD31E48A1F1B772A2F55852824232
:101D28001BD31C4A1C480A44824234BF4FF4E05C6F
:101D38004FF4C05CBDE74FF4705CBAE74FF4605CE9
:101D4800B7E74FF4505CB4E74FF4405CB1E74FF4A9
:101D5800305CAEE74FF4205CABE74FF4005CA8E7DB
:101D6800405327FFFF340C00401E1BFF3F420F006B
:101D78007F4F120020D6130060B6E5FE5FE3160021
:101D880000D3CEFE40771B00C05BB3FEC09121009C
:101D980020753800E05459FEE09C410003460020BD
:101DA8009A6842F001029A60704700BF034600201B
:101DB8009A6822F001029A60704700BF08B5C368AC
:101DC800012923F0C043C3600BD041B9C36843F075
:101DD8008043C3603220FEF721FD002008BD0120AA
:101DE80008BDC36843F00053C360F3E784B02DE92E
:101DF800F04308AC84E80E00129D002203460C460E
:101E0800104602F1400103EB810101320F2A4860BC
:101E1800F7D103F5006C002D40F0A380DCF8042016
:101E280042F00202CCF804209A6B42F400129A6342
:101E38009A6B22F400229A639A6B22F480229A63A6
:101E48000022C3F8002ED3F80028C3F800280D9A02
:101E5800012A00F08F80D3F8002842F00302C3F86B
:101E680000284FF484621A614B4A02E0013A00F0FC
:101E78008F80186910F02000F8D110221A61464AA4
:101E880002E0013A00F086801969C906F9D40021F8
:101E9800CCF81010CCF81410CCF81C10E4B103F5F1
:101EA80010620F464FF090484FF000694FF67F3EA2
:101EB80008E017600131A1421761C2F808E002F199
:101EC800200230D01668002EF3DA11B1C2F8008073
:101ED800F0E7C2F80090EDE7DCF8102022F48072F9
:101EE800CCF8102000210B9A99616FF0804159615C
:101EF8001AB99A6942F010029A619969274A0A4305
:101F08000E999A6119B19A6942F008029A61012DF5
:101F180005D19A6942F0804242F004029A61BDE814
:101F2800F04304B07047002103F530620F464FF0CC
:101F380090484FF000694FF67F3E08E01760013186
:101F4800A1421761C2F808E002F12002C4D0166865
:101F5800002EF3DA11B1C2F80080F0E7C2F8009061
:101F6800EDE79A6B22F400129A639A6B42F400220E
:101F78009A6365E70A9A22B9D3F80028C3F80028BB
:101F88006FE7D3F8002842F00102C3F8002868E799
:101F9800012072E701207AE7400D030000383C80F9
:101FA800890141F02001064A016101E0013A05D0AA
:101FB800036913F02003F9D11846704703207047CE
:101FC800400D0300D0F8083813F0060004D013F0D1
:101FD800020F14BF02200F20704700BF10B50A7807
:101FE800012302F00F0E03FA0EF391F801E0BEF19F
:101FF800010F00F5006C00EB42101AD0DCF81C2031
:1020080042EA0343CCF81C30D0F8003B1B040ED442
:102018008B68D0F8004BCA78C3F30A03234343EA1A
:10202800824343F0805343F40043C0F8003B002050
:1020380010BDDCF81C402343CCF81C30D0F8003924
:102048001C04F4D48B68D0F80049C978C3F30A0398
:10205800234343EA814343EA825242F0805242F4E6
:102068000042C0F80029002010BD00BF10B40A7853
:102078004978012900EB42132BD0D3F8001B002923
:102088001ADBD0F83C484FF4803102F00F0201FA15
:1020980002F224EA0204C0F83C48D0F81C4821495E
:1020A80024EA0202C0F81C28D3F8002B10BC114007
:1020B8000020C3F8001B7047D3F8001B41F00061F3
:1020C800C3F8001BD3F8001B41F08041C3F8001B84
:1020D800D7E7D3F8001900290BDAD3F8001941F033
:1020E8000061C3F80019D3F8001941F08041C3F822
:1020F8000019D0F83C1802F00F040122A24021EA8E
:102108000201C0F83C18D0F81C48074924EA02022A
:10211800C0F81C28D3F8002910BC11400020C3F8CF
:10212800001970470078F3EF007833EC2DE9F04799
:102138004E780D784B6991F803E0012E00EB451CB1
:102148004ED0DCF8104B8D68E40CE404CCF8104B4E
:10215800DCF8104B24F0FF5424F4C014CCF8104BD6
:102168000CF5306463B3714E2B44013BB3FBF5F3BC
:1021780006EAC3469BB205FB03F32569354325618F
:102188002569C3F312032B43012A236123D0BEF12F
:10219800010F0CD1D0F8083813F4807FDCF8003B2D
:1021A8000CBF43F0005343F08053CCF8003BDCF8FD
:1021B800003B43F00443CCF8003B0020BDE8F08727
:1021C800C5F3120325692B4323612369012A43F4CC
:1021D80000232361DBD1CB68002BD8D06361D6E71D
:1021E8000CF51064A3B32769D1F808A0FF0CFF040D
:1021F8002761276927F0FF5727F4C01727614B4F3E
:10220800D4F810900AEB030808F1FF38B8FBFAF885
:1022180007EAC84747EA09072761D4F81080C3F3DB
:10222800120747EA0807BEF1010F276149D0012AC2
:1022380066D0DCF8003943F00443CCF80039D0F814
:10224800343805F00F05AE401E43C0F83468B4E7D3
:10225800266926F0FF5626F4C0162661266946F43C
:10226800002626612669F60CF604012A266139D073
:10227800DCF80049BEF1010F44F00444CCF80049F1
:102288009BD1D0F8084814F4807FDCF800490CBFD3
:1022980044F0005444F08054CCF80049002A8CD112
:1022A8009BB203339A0888D0CB6800EB053000F561
:1022B800805003EB820153F8042B02609942FAD153
:1022C8007BE7266926F0C04626612669012A46F082
:1022D8000056266119D0DCF8004944F00444CCF8D3
:1022E8000049CEE70B6973B9BEF1010F10D0DCF8D5
:1022F800003943F00443CCF800390020BDE8F087EA
:102308000B69002BF3D06361EEE70B69002BFAD160
:10231800D0F8083813F4807FDCF800390CBF43F09C
:10232800005343F08053CCF80039E0E70000F81F71
:1023380030B54C7891F800E04D69012C00EB4E1C4B
:1023480029D0DCF8100BC00CC004CCF8100BDCF85A
:10235800100B20F0FF5020F4C0100CF5306318610A
:10236800886805B148611C6944F400241C611C6933
:10237800C0F312002043012A186107D0DCF8003BA3
:1023880043F00443CCF8003B002030BDCA68002A63
:10239800F4D05A61F2E70CF510631C696DB3E40CD4
:1023A800E4041C611C6924F0FF5424F4C0141C616B
:1023B8008C68AC423CBF4C6125461C6944F400243F
:1023C8001C611C69C5F312052543012A1D6123D030
:1023D800DCF800394A6943F00443CCF80039002A94
:1023E800D2D0D0F834180EF00F03012202FA03F30A
:1023F8000B43C0F83438002030BD24F0FF5424F4D7
:10240800C0141C611C6944F400241C611C69E40CA0
:10241800E404012A1C61DBD10A6902B15A61DCF8C3
:10242800003943F00443CCF80039002030BD00BF28
:1024380010B49DF8044064B903339B0809D00132F5
:1024480000EB023001EB830351F8042B02608B424E
:10245800FAD1002010BC7047033292080AD000F568
:10246800805C01EB8200DCF8003041F8043B8142DB
:10247800F9D17047084670474A780B78012A00EB73
:1024880043100CD0D0F8002B002A00DBD3B9D0F8C9
:10249800003B43F40013C0F8003B00207047D0F81D
:1024A8000029002A06DB2BB1D0F8003923F080433D
:1024B800C0F80039D0F8003943F40013C0F80039E7
:1024C80000207047D0F8003B23F08043C0F8003B61
:1024D800DDE700BFCB784A7891F800C0023B012ABB
:1024E80000EB4C10DBB211D0D0F8002B012B22F4FA
:1024F8000012C0F8002B01D900207047D0F8003B2B
:1025080043F08053C0F8003B00207047D0F8002902
:10251800012B22F40012C0F80029EDD8D0F80039B8
:1025280043F08053C0F8003900207047D0F80038D5
:1025380023F4FE63C0F80038D0F80038090101F42C
:10254800FE611943C0F8001800207047D0F8002E2B
:10255800034622F00302C3F8002ED3F8043800F52E
:10256800006123F0020300204B607047D0F8002E72
:10257800034622F00302C3F8002ED3F8043800F50E
:10258800006143F0020300204B6070474269806994
:1025980010407047D0F8183800F50060C06918403E
:1025A800000C7047D0F8183800F50060C069184072
:1025B80080B2704700EB411100F50060D1F8082B9C
:1025C80040691040704700BFD0F81028D0F8343860
:1025D80000EB411001F00F01CB40DB01D0F80809F6
:1025E800DBB2134318407047406900F001007047A0
:1025F800D0F80029034622F4FF6222F00702C3F84C
:102608000029D3F8043800F5006143F480730020F2
:102618004B60704730B4056C114CA54200F530632F
:1026280003D9D0F8004B002C16DB00241C611C6970
:1026380044F400241C611C6944F018041C611C69E2
:10264800012944F0C0441C6106D15A61D0F8003B0E
:1026580043F08023C0F8003B002030BC704700BF27
:102668000A30544FA0B1D0F8B83213B10023C0F8E3
:10267800B832D0F8CC3213B10023C0F8CC3209B14B
:10268800C0F8B412012380F89C320270FDF7F8BE3E
:102698000320704730B583B00024ADF8064059B127
:1026A8008B6AC0F8B81205460DF106009847C5F8C0
:1026B800CC02204603B030BD032003B030BD00BFBC
:1026C800FDF710BFD0F8B8320BB11B6818470320CC
:1026D800704700BF08B5D0F8B8320BB15B689847AF
:1026E800002008BD38B5044600F2AA25284600F0A7
:1026F80085FB94F8AA12B4F8B022C4F898220123F2
:10270800C4F8943201F01F03012B09D0022B13D017
:1027180063B1204601F08001BDE83840FDF70EBFE7
:1027280029462046BDE8384000F098BA2946204698
:10273800BDE8384000F0F6B829462046BDE83840E4
:1027480000F0BCBA70B5054639B91346D0F89422E2
:10275800032A0C460ED0002070BDD0F8B8329B6911
:1027680033B190F89C22032A02D1BDE87040184783
:10277800032070BDD0E9571291420DD8D0F8B83275
:102788001B6923B190F89C22032A00D19847284658
:1027980000F0A2FB0020DFE7891A8A4228BF0A4618
:1027A800C0F85C11194600F08FFB204670BD00BFD1
:1027B80070B5044659B91346D0F89422022A16D0A7
:1027C80094F8A032012B4FF000000DD070BDD0F866
:1027D800B8325B6933B190F89C22032A02D1BDE874
:1027E80070401847032070BD84F8A00270BDD0E97E
:1027F8000726B2420D4616D824D0D4F8B832DB6882
:102808001BB194F89C22032A19D080212046FDF799
:1028180095FE204600F06CFB94F8A032012B4FF097
:102828000000D3D1E0E7921BC261194600F036FBE5
:102838002B462A4629462046FDF7CCFEC0E720460F
:102848009847E2E783699A42D7D8D0F8982293420A
:10285800D3D20A4600F022FBC4F89852E8E700BF3A
:10286800D0F8BC320021012270B5044680F89C22C1
:10287800C0F894124160C0F8A4121BB1D0F8B83265
:102888005B6898474025002211462B4601262046C2
:10289800FDF736FEA4F86461C4F860512B460022A7
:1028A80080212046FDF72CFEA6842562002070BDFD
:1028B80001740020704700BF90F89C2280F89D2288
:1028C800042380F89C320020704700BF90F89C32A7
:1028D800042B04BF90F89D3280F89C32002070478A
:1028E80090F89C22032A01D00020704708B5D0F840
:1028F800B832DB6903B19847002008BD0020704753
:102908000020704700207047D0F8B822012180F8D5
:102918009C122AB108B5526801799047002008BD79
:1029280000207047F0B50C7804F06004202C83B0C8
:102938000E4605460ED0402C0CD0A4B18021284666
:10294800FDF7FCFD00212846FDF7F8FD0024204690
:1029580003B0F0BDD5F8B8329B683146284603B0BD
:10296800BDE8F04018474F78092FE7D801A353F87E
:1029780027F000BFDB290008092A000845290008BC
:10298800272A0008452900082F2A0008672A000876
:1029980045290008832A0008A52900088E78AE4F2B
:1029A800012E3E7000F2378190F89C32022B00F025
:1029B8002081032B00F0FA808021FDF7BFFD002164
:1029C8002846FDF7BBFD39782846FFF783FE032428
:1029D800BDE790F89C32013B022B65D8CB88022BCF
:1029E80062D1D0F8A4320122C2600BB10323C360C4
:1029F800022205F10C01284600F042FA3C46A6E7FF
:102A080090F89C32013B022B4ED84B88012B9ED16B
:102A18000023C5F8A432284600F05EFA97E74B88F1
:102A2800012B94D1F5E78B88002B3DD1CB88002B67
:102A38003AD14E887F2E37D890F89C32032B33D06A
:102A4800F1B280F89E12FDF7A9FD284600F044FA7D
:102A5800002E00F0FC80022385F89C3277E74A8834
:102A68000023ADF80630130A013B062B1CD8DFE81B
:102A780003F06C5F4C1B1B422600CA88012A13D145
:102A880090F89C32022B00F28A80002B3FF456AF5C
:102A98000146002341F8083F00F0F2F957E7D0F863
:102AA800B4325B68002B5DD180212846FDF746FDD6
:102AB80000212846FDF742FD204603B0F0BD037C07
:102AC800002BF1D1D0F8B8320DF106001B6B9847F6
:102AD80007234370F288002A9DD0BDF80630002BEA
:102AE800E2D09A4228BF1A4601462846ADF8062089
:102AF80000F0C6F92BE7037C002BD5D1D0F8B8320B
:102B08000DF106005B6B9847E4E7D2B2052ACBD8F3
:102B180001A353F822F000BFA72A00089B2B000846
:102B28008F2B0008832B0008772B0008632B0008E5
:102B3800027CD0F8B832002A40F082809B6A0DF1FE
:102B48000600984702234370C4E7D0F8B432007CEB
:102B58001B680DF106019847BCE7D0F8B4329B69B1
:102B6800002BA1D0287C0DF106019847B2E7D0F8D8
:102B7800B4325B69002BF5D196E7D0F8B4321B6903
:102B8800002BEFD190E7D0F8B432DB68002BE9D105
:102B98008AE7D0F8B4329B68002BE3D184E7032B93
:102BA8007FF4CCAE011D00F06BF9D0E6002E3BD0CF
:102BB800416801293FF42FAFC9B2FFF78BFD39787F
:102BC80069602846FFF77EFD064600283FF423AFDC
:102BD80080212846FDF7B2FC00212846FDF7AEFC0F
:102BE80029792846FFF776FD022385F89C3234467A
:102BF800ADE6002E3FF40FAF01214160FFF762FD03
:102C0800044600287FF450AF284600F065F90323F6
:102C180085F89C329BE68021FDF790FC0021284630
:102C2800FDF78CFC032492E60223314680F89C329F
:102C38004660FFF74FFD284600F04EF9344686E619
:102C4800DB6A0DF1060098470223437042E701232F
:102C580085F89C327BE600BFB422002038B50B789B
:102C680003F06002402A0D4604460BD05B0609D5E6
:102C78008021FDF763FC00212046FDF75FFC00255D
:102C8800284638BD94F89C32013B022B12D82B7988
:102C9800012B0FD8D4F8B83229469B6820469847AC
:102CA800EB880546002BEBD10028E9D1204600F03F
:102CB80013F9E5E780212046DBE700BF70B50B7804
:102CC80003F06003202B0D4604460CD0402B0AD09D
:102CD8008BB180212046FDF731FC00212046FDF70D
:102CE8002DFC002070BDD4F8B832294620469B68D8
:102CF800BDE8704018476B788A88012BD1B23BD069
:102D0800032B28D0002BE4D190F89C32022B51D011
:102D1800032BDED101F00F0303EB8303120600EB54
:102D2800830356D4B3F86431002BD2D001F07F036B
:102D3800142505FB030505F5AA752BB12046FDF7FB
:102D480019FC002854D001232B6002222946204672
:102D580000F096F8C5E790F89C32022B21D0032B9F
:102D6800B7D16B8823B94A0602D0EB88002B41D033
:102D7800204600F0B1F8B4E790F89C32022B10D04E
:102D8800032BA6D16B88002BABD14E062DD1204644
:102D980000F0A2F8D4F8B83229469B682046984734
:102DA8009FE74B0695D0FDF7C9FB80212046FDF72C
:102DB800C5FB96E748068CD111064CBF04F11401F7
:102DC80004F5AA7100230B600222204600F058F88F
:102DD80087E79B8C002B3FF47CAF01F07F035D1CE1
:102DE80005EB850500EB8505A7E7FDF7B5FBCEE705
:102DF8002860AAE7FDF7A2FBBAE700BF0B780370CB
:102E08004B7843704B8843808B888380CB88C38002
:102E1800704700BF10B580210446FDF78FFB2046A0
:102E28000021BDE81040FDF789BB00BF18B3037847
:102E380030B40BB30446C0F1010C04EB0C0314F8D6
:102E4800015FDBB2002DF8D101335B00DCB21380E7
:102E580003230C704B7004785CB1022300255A1CC4
:102E6800D2B2CC548D5410F8014F0233DBB2002C8F
:102E7800F5D130BC7047704702242346E7E700BF0E
:102E880008B513460A460221C0E90633C0F8941271
:102E98000021FDF791FB002008BD00BF08B51346CF
:102EA8000A460021FDF788FB002008BD08B5134637
:102EB8000A460321C0E95633C0F894120021FDF7F1
:102EC80089FB002008BD00BF08B513460A4600214B
:102ED800FDF780FB002008BD08B504220023C0F8D8
:102EE800942219461A46FDF767FB002008BD00BF6B
:102EF80008B505220023C0F8942219461A46FDF7A2
:102F080069FB002008BD00BFD0F8C03283B110B5FE
:102F1800D0F8BC4294F80002FF2807D09B6894F8C8
:102F2800012221469847FF2384F80032002010BD73
:102F3800002070474323038000487047A400002006
:102F48004323038000487047E800002043230380A0
:102F580000487047380100200A2303800048704762
:102F68002C01002038B5D0F8BC527DB10446FDF7DD
:102F78003FFBD4F8C0320246DB68D5F80402C5F836
:102F88000C2205F503719847002038BD032038BD91
:102F980070B5D0F8BC524DB301EB810E00EB8E0E2C
:102FA8008446DEF818300A465BB1D0F8C442C1EB5B
:102FB800C10604EB8604646CB3FBF4F604FB163418
:102FC80064B1DCF8C032D5F808021B690024C5F8E2
:102FD800144205F504719847204670BDCEF8184094
:102FE80023462246FDF7E8FA204670BD032070BD4F
:102FF8002DE9F0410B78D0F8BC8282B0002713F09D
:1030080060060C4605468DF80570ADF8067023D0AD
:10301800202E18D1CE8891F801C0002E3AD01B0678
:1030280051D5D5F8C032324641469B68604698472C
:10303800E288414628463E46FFF722FF08E090F81E
:103048009C32032B49D021462846FFF7E3FE03268E
:10305800304602B0BDE8F0814F780B2FF3D801A3BA
:1030680053F827F047300008593000084F3000085F
:103078004F3000084F3000084F3000084F3000082C
:103088004F3000084F3000084F300008BB300008B0
:10309800B1300008D0F8C03232469B686046984785
:1030A800304602B0BDE8F08190F89C32032BCFD0B7
:1030B800C9E790F89C32032BC5D101220DF1050117
:1030C800FFF7DEFEC4E788F80162324688F800C2DE
:1030D8004146FFF7EBFE3E46BAE702220DF1060134
:1030E800FFF7CEFE3E46B3E738B5044600258121FA
:1030F800FDF716FA012125872046FDF711FAA4F8F5
:10310800785182212046FDF70BFAD4F8BC32E564E9
:103118004BB1D4F8C0325B689847D4F8BC0200F0D1
:10312800A9FBC4F8BC52002038BD00BF2DE9F0410E
:1031380004464FF4077000F095FB054600284BD075
:10314800237CC4F8BC0293B34023022281210126C8
:103158002046FDF7D5F9268740233146022220462E
:10316800FDF7CEF910230322A4F87861A4F84E30B5
:10317800822108232046FDF7C3F9D4F8C0324FF066
:1031880001081B68A4F84C809847267CD5F80422CF
:103198000027C5F81472C5F81872A6B94FF4007361
:1031A80041462046FDF716FA3046BDE8F0814FF457
:1031B80000730222812101262046FDF7A1F9268706
:1031C8004FF40073C9E74023414620463E46FDF7C9
:1031D80001FA3046BDE8F081C4F8BC020226E3E7F4
:1031E80019B1C0F8C012002070470320704700BF13
:1031F800D0F8BC320020C3F80812C3F81022704778
:10320800D0F8BC320020C3F804127047D0F8BC22B2
:1032180010B58AB1047CD2F8042234B140230121CC
:103228000024FDF7D7F9204610BD4FF400730121A3
:10323800FDF7D0F9204610BD0324204610BD00BF7D
:10324800DFF834D0002103E00C4B5B5843500431C5
:103258000B480C4B42189A42F6D30B4A02E0002363
:1032680042F8043B094B9A42F9D3FDF72FF800F0D6
:10327800D5FA00F059F870470000022040420008D3
:1032880000000020BC090020BC0900207023002099
:10329800FEE7000030B5002495B0CDE90A44CDE939
:1032A8000C44CDE90344CDE905441D4A0194079433
:1032B800116C1C4B41F080511164126C02F0805269
:1032C8000192019A02941A6842F480421A601B68BB
:1032D80003F48043029301220225029B08924FF4D3
:1032E80080034FF48032CDE90E530992A8230422BB
:1032F800CDE9102308A80723CDE91253FEF742F9B8
:103308000F23CDE903354FF4A0524FF4805303A89F
:103318000521CDE905420793FEF744FB15B030BD02
:10332800003802400070004080B500248CB0FDF7E2
:1033380049FAFFF7AFFFCDE90744CDE90944754BDA
:1033480001940B94196B7448DFF8D08141F0100197
:103358001963196B01F01001019101990294196B1D
:1033680041F004011963196B01F0040102910299FB
:103378000394196B41F080011963196B01F0800106
:10338800039103990494196B41F001011963196BB6
:1033980001F00101049104990594196B41F00201AF
:1033A8001963196B01F00201059105990694196BCF
:1033B80041F0080119631B6B03F0080322460693CA
:1033C8000821069BFEF7DAF8012211465448FEF759
:1033D800D5F8224653484FF21001FEF7CFF80126E0
:1033E80008274D4807A90225CDE90776CDE9094404
:1033F800FDF796FF4A4807A9CDE90766CDE90944D4
:10340800FDF78EFFCDE907754548052707A9CDE9E2
:1034180009440B97FDF784FF4348079607A94FF027
:10342800060A0994CDF82080FDF77AFF10233E485C
:10343800079307A9CDE908540A94CDF82CA0FDF705
:103448006FFFE0233848079307A94FF00409CDE937
:103458000854CDE90A47FDF763FF3448CDF81C90BE
:1034680007A9CDE90844FDF75BFF4FF480632F48B7
:10347800079307A9CDE908540B970A94FDF750FF65
:103488004FF210032748079307A9CDE908640A9467
:10349800FDF746FF4FF4A4532148079307A9CDE948
:1034A8000854CDF82CA00A94FDF73AFF20231D48B4
:1034B800079307A9CDE90844FDF732FF4FF41072CE
:1034C80012231A48CDF82C9007A9CDE90723CDE996
:1034D8000964FDF725FF1048099407A9CDE90758A5
:1034E800FDF71EFF124813494FF48273C0E9001319
:1034F8004FF480220A23C0E90624C0E90A43C0E940
:103508000244C0E90444C0E90844FDF799F9FDF70D
:10351800FBF8FEE7003802400010024000001210DD
:1035280000080240000C0240000002400004024073
:10353800B822002000380040704700BF2DE9F04F46
:1035480007468C460846099E15463C461946002BF8
:1035580040F0C6808242B2FA82F746D94FB1C7F12D
:10356800200E24FA0EFE00FA07F3BD404EEA030CC3
:10357800BC404FEA15481FFA85FEBCFBF8F9220C3F
:1035880008FB19C309FB0EFA42EA03439A4528D9F6
:10359800EB1809F1FF3004D29A4502D9A9F10200CB
:1035A8002B44A3EB0A03A4B2B3FBF8F208FB1233D3
:1035B80002FB0EFE44EA0344A64514D92C1902F175
:1035C800FF3303D2A64501D9931E2C44A4EB0E0465
:1035D80043EA00401EB1FC40002334607360BDE83C
:1035E800F08F4846DDE71346F0E702B9FFDE87BBF8
:1035F800831A01214FEA154EAAB2B3FBFEFC200C38
:103608000EFB1C330CFB02F840EA0343984563D9D0
:10361800EB180CF1FF3004D2984502D9ACF1020046
:103628002B44A3EB0803A4B2B3FBFEFC0EFB1C3334
:103638000CFB02F244EA0344A2424FD92C190CF1C4
:10364800FF3304D2A24202D9ACF102032C44A41ADB
:10365800BEE7C7F1200C20FA0CF800FA07F324FAA9
:103668000CFCBD404CEA03024FEA154EABB2B8FB66
:10367800FEFC110C0EFB1C800CFB03F941EA004018
:10368800814504FA07F423D928180CF1FF3104D234
:10369800814502D9ACF102012844A0EB090092B29D
:1036A800B0FBFEFC0EFB1C000CFB03F842EA0043D7
:1036B80098450FD9EB180CF1FF3204D2984502D97E
:1036C800ACF102022B44A3EB080342EA014191E763
:1036D8006146E2E76246F6E76046A2E76346B6E778
:1036E800834205D90EB1C6E900700021084676E785
:1036F800B3FA83F181B9834201D3BA420AD8BC1A1A
:1037080060EB030301209C46002E68D0C6E9004CFC
:10371800002164E70846F7E7C1F1200C8B4022FA44
:103728000CF41C4302FA01F500FA01F327FA0CF233
:1037380020FA0CFB4FEA14491343BBFBF9F81FFAB4
:1037480084FE09FB18BB1A0C08FB0EFA42EA0B426E
:10375800924507FA01F73ED9A21808F1FF3004D2C2
:10376800924502D9A8F102002244A2EB0A029BB2B8
:10377800B2FBF9F809FB182208FB0EFE43EA0242E5
:1037880096452AD9A21808F1FF3304D2964502D9E2
:10379800A8F10203224443EA0040A0FB0593A2EBF0
:1037A8000E029A42CE46984602D306D14F4504D21D
:1037B800B9EB050E63EB0408013886B1B7EB0E03CD
:1037C80062EB080707FA0CFCCB404CEA0303CF4036
:1037D800C6E900379CE74046C7E74346DBE7314682
:1037E800FDE60000002301461A46184600F024BBF7
:1037F80038B5084B084D5B1B9C1007D0043B1D4493
:10380800013C55F804399847002CF9D1BDE83840F7
:1038180000F0D2BC384200083442000870B50D4EA2
:103828000D4D761BB61006D0002455F8043B013424
:103838009847A642F9D1094E094D761B00F0B6FC0F
:10384800B61006D0002455F8043B01349847A64228
:10385800F9D170BD2C4200082C42000834420008FF
:103868002C420008024B0146186800F00BB800BF54
:103878007C010020024B0146186800F07BBB00BFAA
:103888007C0100202DE9F04F01F10B05162D83B0C6
:10389800064623D8102900F2A78000F0AFFA1025B9
:1038A80002201823CA4F3B44A3F108025C689442E3
:1038B80000F0A780636823F003032344D4E902518E
:1038C8005A68E96042F0010230468D605A6000F0A3
:1038D8009BFA0834204603B0BDE8F08F35F00705A1
:1038E80000F18280A9427FD800F088FAB5F5FC7F04
:1038F800C0F0A2816B0A7ED0042B00F25D81AB0977
:1039080003F1390003F1380CC300B14F3B44A3F174
:1039180008015C68A14206D10CE0002A80F21981F6
:10392800E468A14206D0636823F003035A1B0F2AF8
:10393800F3DD60463C69DFF8AC8244456CD06268D0
:1039480022F00302531B0F2B00F38481002BC7E9DD
:10395800048880F27581B2F5007F80F00881D10873
:1039680001315209012393407A6857F831C0C4F8ED
:1039780008C007EBC10E1343AEF10802E2607B609A
:1039880047F83140CCF80C4082104FF0010C0CFA8B
:1039980002FC9C4548D81CEA030F08D120F003001C
:1039A8004FEA4C0C1CEA030F00F10400F8D007EBB7
:1039B800C00AD6468146DEF80C300BE0596821F083
:1039C80003014A1B0F2A1C46DB6800F30F81002AFB
:1039D80080F225819E45F1D109F1010919F0030F03
:1039E8000EF1080EE7D16AE10C233360002420466B
:1039F80003B0BDE8F08F4FF4007340204FF03F0C48
:103A080083E7DC68A34208BF02307FF453AF3C6908
:103A1800DFF8D081444592D17B6882104FF0010CC9
:103A28000CFA02FC9C45B6D9BC68636823F003080D
:103A3800454503D8A8EB05030F2B7ADCDFF8A891DE
:103A4800644BD9F800201B6801322B4404EB080AA8
:103A580000F0508103F580530F3323F47F6B2BF074
:103A68000F0B5946304600F0D5F9411C024600F0CC
:103A78000B81824500F20681574B19685944196039
:103A8800084600F06B81D9F80010019301311BBF83
:103A9800A2EB0A0A5044C9F80020186012F0070A7D
:103AA80000F03481CAF108010A44CAF580519344F0
:103AB8000831A1EB0B01C1F30B09494630460092CE
:103AC80000F0A8F9421CDDE9002300F06C81801A9F
:103AD80000EB090B1968BA604BF001004944BC427D
:103AE8005060196000F04681B8F10F0F40F2448130
:103AF8006068A8F10C0C2CF0070C00F0010004EB36
:103B08000C0E40EA0C004FF00508BCF10F0F606086
:103B1800CEE9018800F24F81506814462F4B1A688D
:103B28008A4238BF19602E4B1A688A4238BF19601A
:103B3800ACE0621943F0010345F0010565603046C9
:103B4800BA60536000F060F90834204603B0BDE85D
:103B5800F08F2344E1685A68A56842F00102E960E1
:103B680030468D605A6000F04FF908343FE7B2F5EF
:103B7800206F4FEA52237FD3142B00F2D88003F131
:103B88005C01C9005B3307EB010C7958ACF1080CF8
:103B98008C4500F0B2804B6823F00303934202D9AE
:103BA80089688C45F7D1D1F80CC07B68C4E9021C40
:103BB800CCF80840CC60E7E6142B75D9542B00F2FA
:103BC800BE802B0B03F16F0003F16E0CC3009CE663
:103BD800A8050020402300201023002038230020BF
:103BE8003C230020B0050020B0090020D4F808E0EC
:103BF80004EB050C45F00105656042F00105CEF8BF
:103C08000C303046C3F808E0C7E904CCCCE9028898
:103C1800CCF80450625000F0F7F80834E7E6214485
:103C280054F8085F4A6842F001024A603046EB6087
:103C38009D6000F0E9F8DAE6E80805F1080331E6E6
:103C480022443046536843F001035360083400F0BF
:103C5800DBF8CCE6611945F0010C43F00105C4F826
:103C680004C03046C7E90411C1E902884D60A35079
:103C780000F0CAF80834BAE6930903F13901C9001B
:103C8800383380E7BC4264D0BC68606820F0030B1E
:103C98005D45ABEB050302D80F2B3FF74AAF304623
:103CA80000F0B2F80024A2E603F15C0003F15B0C1B
:103CB800C3002AE65AF80839534540F09B8010F0B3
:103CC800030F00F1FF30F5D17B6823EA0C037B601A
:103CD8004FEA4C0C9C453FF6A7AEBCF1000F04D14F
:103CE800A2E64FEA4C0C09F104091CEA030FF8D0CC
:103CF80048465CE603F1100BB3E69A104FF0010E4C
:103D08007B680EFA02F213437B604FE702EB0B016C
:103D18004942C1F30B0949463046009200F07AF84F
:103D2800431CDDE900237FF4D2AED146D2E6542B02
:103D380025D8130B03F16F01C9006E3323E7B3F5E0
:103D4800AA7F25D8EB0B03F1780003F1770CC300A9
:103D5800DBE5294B18685844186094E6CAF30B0C45
:103D6800BCF1000F7FF48FAEBC68C3444BF0010078
:103D78006060D3E61446D1E6012353608FE7B3F5BC
:103D8800AA7F23D8D30B03F17801C9007733FAE669
:103D980040F25452934223D8AB0C03F17D0003F157
:103DA8007C0CC300B1E5AAF1080AD344ABEB020BC3
:103DB8004FF000098EE604F108013046009300F048
:103DC800D9F8BC68009B60681968A7E640F25451AE
:103DD8008B420BD8930C03F17D01C9007C33D2E6EA
:103DE8004FF47E737F204FF07E0C8EE54FF47E718A
:103DF8007E23C8E67B686BE710230020014800F0AB
:103E0800C3B900BF58230020014800F0BFB900BF64
:103E18005823002038B5074D0022044608462A607A
:103E280000F0B6F9431C00D038BD2B68002BFBD03E
:103E3800236038BD6C2300202DE9F047DFF87CA013
:103E48000646DAF8000098460F46914600F09CF9BD
:103E5800194B1B68D3F8484124B36568DAF80000A9
:103E68001F2D24DC4EB9AB1C0135656044F8237066
:103E780000F08CF90020BDE8F08704EB85030122EF
:103E8800C3F88890D4F88811AA401143022EC4F8C8
:103E98008811C3F80881E6D1D4F88C311A43C4F8E4
:103EA8008C21E0E703F5A674C3F84841D5E700F094
:103EB8006DF94FF0FF30DEE728420008B80900200E
:103EC800024B13B10248FFF78DBC70470000000099
:103ED800F9370008F8B5244F0C460646FFF78EFF61
:103EE800BB685D68C4F57E610F3125F003054B1989
:103EF80023F47F6323F00F03A3F58054B4F5805FA8
:103F080007DB00213046FFF785FFBB682B4498424A
:103F180004D03046FFF778FF0020F8BD61423046F4
:103F2800FFF778FF01300DD0104AB96813682D1BD0
:103F380045F0010530461B1B4D601360FFF764FF19
:103F48000120F8BD00213046FFF764FFBA68831AE4
:103F58000F2BDEDD064C0549246843F00103001BE6
:103F680053600860D5E700BFA80500201023002093
:103F7800B0090020002963D0F8B50C460646FFF7C3
:103F88003DFF54F8045C7D4925F00100A4F1080CBC
:103F98000CEB00038F685A689F4222F0030200F07E
:103FA8008E80ED075A6003EB020736D454F808EC0C
:103FB8007C68ACEB0E0C01F10807DCF80850BD4238
:103FC800704404F0010468D0DCF80CE0C5F80CE09B
:103FD800CEF80850002C00F0998040F00102CCF88F
:103FE80004201860B0F5007F33D2C3084C68013351
:103FF800420901209040204301EBC30251F83340AD
:104008004860083ACCE9024241F833C0C4F80CC011
:104018003046BDE8F840FFF7F7BE7D68ED0710D4DD
:10402800104401F108079A68BA4240F0010475D0BB
:10403800DB68D3609A60CCF804404CF80000D1E704
:10404800704740F00102B0F5007F44F8042C186076
:10405800CBD3B0F5206F4FEA50234CD2830903F13C
:104068003905ED0003F138024B594C19083C9C42C4
:104078005DD05A6822F00302824202D99B689C42B2
:10408800F7D1DC68CCE902343046C4F808C0C3F87C
:104098000CC0BDE8F840FFF7B7BE002C68D1D3E9E3
:1040A8000231024442F00100D9608B60CCF8040070
:1040B80030464CF80220BDE8F840FFF7A5BEEF07F0
:1040C800024408D454F8083CACEB030C1A44DCE96D
:1040D8000203C36098602A4B1B6842F001009342B8
:1040E800CCF80400C1F808C092D8264B30461968AD
:1040F800FFF7F0FE8CE7142B0AD9542B1FD8030BBB
:1041080003F16F05ED0003F16E02ADE710448AE795
:1041180003F15C05ED0003F15B02A5E7C1E904CCFE
:10412800CCE90277CCF804404CF8000070E7486806
:104138009210012505FA02F202434A60A2E7B3F59C
:10414800AA7F06D8C30B03F17805ED0003F17702C7
:104158008AE740F25452934206D8830C03F17D0556
:10416800ED0003F17C027FE74FF47E757E227BE74A
:1041780040F00102CCF80420186049E7A8050020A7
:10418800B409002040230020704700BF704700BFDB
:10419800044A05491368002B08BF0B4618441060F1
:1041A800184670474423002070230020F8B500BF4C
:1041B800F8BC08BC9E467047F8B500BFF8BC08BC00
:0441C8009E46704758
:1041CC0000000000000000000102030406070809BB
:1041DC000003010353544D6963726F656C6563741E
:1041EC00726F6E696373000053544D3332205669FD
:1041FC00727475616C20436F6D506F7274000000A7
:10420C0043444320436F6E66696700004344432078
:10421C00496E746572666163650000008001002060
:08422C00C93E0008E101000891
:04423400BD010008C0
:084238000CF3FF7F0100000000
:104240000024F4000D030008E5020008E90200085C
:10425000F1020008ED020008010600080D06000842
:1042600019060008350600088906000851060008EE
:104270006D0600081201000202020040830440574C
:104280000002010203010000040309041A030000F4
:10429000000000000000000000000000000000001E
:1042A000000000000000010010000000353100088F
:1042B000F1300008F92F000800000000112F00085D
:1042C000992F00086D2F000800000000000000007A
:1042D00000000000492F00083D2F0008552F00085E
:1042E000612F000809024300020100C032090400E6
:1042F0000001020201000524001001052401000153
:1043000004240202052406000107058203080010A8
:1043100009040100020A0000000705010240000034
:10432000070581024000000009024300020100C0AD
:1043300032090400000102020100052400100105F9
:10434000240100010424020205240600010705825D
:104350000308001009040100020A0000000705011B
:104360000200020007058102000200000A060002A6
:10437000000000400100000009074300020104C0E2
:1043800032090400000102020100052400100105A9
:10439000240100010424020205240600010705820D
:1043A0000308001009040100020A000000070501CB
:1043B000024000000705810240000000800100204B
:1043C000000000006C040020D40400203C05002004
:1043D00000000000000000000000000000000000DD
:1043E00000000000000000000000000000000000CD
:1043F00000000000000000000000000000000000BD
:1044000000000000000000000000000000000000AC
:10441000000000000000000000000000000000009C
:10442000000000000000000000000000000000008C
:10443000000000000000000000000000000000007C
:10444000000000000000000000000000000000006C
:10445000000000000000000000000000000000005C
:10446000000000000000000001000000000000004B
:104470000E33CDAB34126DE6ECDE05000B00000010
:10448000000000000000000000000000000000002C
:10449000000000000000000000000000000000001C
:1044A000000000000000000000000000000000000C
:1044B00000000000000000000000000000000000FC
:1047F000A8050020A8050020B0050020B005002075
:10480000B8050020B8050020C0050020C005002024
:10481000C8050020C8050020D0050020D0050020D4
:10482000D8050020D8050020E0050020E005002084
:10483000E8050020E8050020F0050020F005002034
:10484000F8050020F80500200006002000060020E2
:104850000806002008060020100600201006002090
:104860001806002018060020200600202006002040
:1048700028060020280600203006002030060020F0
:1048800038060020380600204006002040060020A0
:104890004806002048060020500600205006002050
:1048A0005806002058060020600600206006002000
:1048B00068060020680600207006002070060020B0
:1048C0007806002078060020800600208006002060
:1048D0008806002088060020900600209006002010
:1048E0009806002098060020A0060020A0060020C0
:1048F000A8060020A8060020B0060020B006002070
:10490000B8060020B8060020C0060020C00600201F
:10491000C8060020C8060020D0060020D0060020CF
:10492000D8060020D8060020E0060020E00600207F
:10493000E8060020E8060020F0060020F00600202F
:10494000F8060020F80600200007002000070020DD
:10495000080700200807002010070020100700208B
:10496000180700201807002020070020200700203B
:1049700028070020280700203007002030070020EB
:10498000380700203807002040070020400700209B
:10499000480700204807002050070020500700204B
:1049A00058070020580700206007002060070020FB
:1049B00068070020680700207007002070070020AB
:1049C000780700207807002080070020800700205B
:1049D000880700208807002090070020900700200B
:1049E0009807002098070020A0070020A0070020BB
:1049F000A8070020A8070020B0070020B00700206B
:104A0000B8070020B8070020C0070020C00700201A
:104A1000C8070020C8070020D0070020D0070020CA
:104A2000D8070020D8070020E0070020E00700207A
:104A3000E8070020E8070020F0070020F00700202A
:104A4000F8070020F80700200008002000080020D8
:104A50000808002008080020100800201008002086
:104A60001808002018080020200800202008002036
:104A700028080020280800203008002030080020E6
:104A80003808002038080020400800204008002096
:104A90004808002048080020500800205008002046
:104AA00058080020580800206008002060080020F6
:104AB00068080020680800207008002070080020A6
:104AC0007808002078080020800800208008002056
:104AD0008808002088080020900800209008002006
:104AE0009808002098080020A0080020A0080020B6
:104AF000A8080020A8080020B0080020B008002066
:104B0000B8080020B8080020C0080020C008002015
:104B1000C8080020C8080020D0080020D0080020C5
:104B2000D8080020D8080020E0080020E008002075
:104B3000E8080020E8080020F0080020F008002025
:104B4000F8080020F80800200009002000090020D3
:104B50000809002008090020100900201009002081
:104B60001809002018090020200900202009002031
:104B700028090020280900203009002030090020E1
:104B80003809002038090020400900204009002091
:104B90004809002048090020500900205009002041
:104BA00058090020580900206009002060090020F1
:104BB00068090020680900207009002070090020A1
:104BC0007809002078090020800900208009002051
:104BD0008809002088090020900900209009002001
:104BE0009809002098090020A0090020A0090020B1
:0C4BF000FFFFFFFF000002004823002030
:040000050800324974
:00000001FF
